:03000000020517DF
:0C051700787FE4F6D8FD75812002055EB7
:0509EE001209B180FEBA
:0509E80042000009605F
:10000300EF4E601A900000E0FCA3E0FDED1D7001CF
:0E0013001C144C70F7EF1F70011E144E70E6A7
:0100210022BC
:0A09CD00EF1FAC0670011E4C70F61F
:0109D70022FD
:10093E00900000E0FCA3E0FD1203B9E47B83FAF91A
:10094E00F812025F90000212037C900002E0C313C3
:06095E00FEA3E013FF22DE
:10096400E50965996008859909E4F5088002050898
:10097400AF08C3EF94E97480948040060075C760A3
:030984000000224E
:0E09B10043BA80E4F509F508120911D2AF220D
:0809D800010204081020408018
:0F09A200EF54F0F50AEF540F9009D893F50B229C
:10048A00EF540FD394077480948040030205161228
:10049A0009A2E50A24F0602424F0602A24F06030DE
:1004AA0024F0603624F0603C24F0604224F0604876
:1004BA0024707058ED90FE1060498042ED90FE1154
:1004CA006002803A803DED90FE12600280308033F7
:1004DA00ED90FE13600280268029ED90FE146002E2
:1004EA00801C801FED90FE15600280128015ED9031
:1004FA00FE1660028008800BED90FE176005E0454D
:0D050A000BF022E0FFE50BF4FEEF5EF022A7
:10002600EF540FD3940774809480400302022F127A
:1000360009A2ED706EAF0AFEEF7007E50BF452935E
:100046005294EF64104E7007E50BF452915292E50C
:100056000A64207007E50BF452955296AF0A7E00AB
:10006600EF64307007E50BF452B152B2EF64404EC4
:100076007007E50BF452B352B4E50A64507007E515
:100086000BF452C952CAAF0A7E00EF64607007E5EE
:100096000BF452CB52CCEF64704E7007E50BF45262
:1000A600E152E2ED6401600302012FAF0AFEEF7038
:1000B60009E50B4293E50BF45294EF64104E700978
:1000C600E50B4291E50BF45292E50A64207009E5CE
:1000D6000B4295E50BF45296AF0A7E00EF64307042
:1000E60009E50B42B1E50BF452B2EF64404E7009DC
:1000F600E50B42B3E50BF452B4E50A64507009E52A
:100106000B42C9E50BF452CAAF0A7E00EF64607079
:1001160009E50B42CBE50BF452CCEF64704E700947
:10012600E50B42E1E50BF452E2EDFF7E006402705E
:1001360071E50AFB7A007008E50B4293E50B4294E1
:10014600EB64104A7008E50B4291E50B4292EB64B2
:10015600204A7008E50B4295E50B4296EB64304A5F
:100166007008E50B42B1E50B42B2EB64404A7008F9
:10017600E50B42B3E50B42B4EB64504A7008E50B5D
:1001860042C9E50B42CAEB64604A7008E50B42CBF4
:10019600E50B42CCEB64704A7008E50B42E1E50BD7
:1001A60042E2EF64034E600302022FAF0AFEEF70D5
:1001B60009E50BF45293E50B4294EF64104E700977
:1001C600E50BF45291E50B4292E50A64207009E5CD
:1001D6000BF45295E50B4296AF0A7E00EF64307041
:1001E60009E50BF452B1E50B42B2EF64404E7009DB
:1001F600E50BF452B3E50B42B4E50A64507009E529
:100206000BF452C9E50B42CAAF0A7E00EF64607078
:1002160009E50BF452CBE50B42CCEF64704E700946
:0A022600E50BF452E1E50B42E22281
:10086500EFFB7A0070028D80EB64014A70028D9077
:10087500EF640270028DA0EFFB7A00640370028DB5
:10088500B0EB64044A70028DC0EF640570028DC838
:10089500EFFB7A00640670028DE8EB64074A70048A
:0508A500AF058FF822F1
:1006E800EFFD7C007003AF8022ED64014C7003AF16
:1006F8009022EFFD7C0064027003AFA022ED64033A
:100708004C7003AFB022EFFD7C0064047003AFC0EF
:1007180022ED64054C7003AFC822EFFD7C0064062F
:100728007003AFE822ED64074C7003AFF8227FFF37
:01073800229E
:1003E600EF540FD39407748094804003020489125B
:1003F60009A2E50A24F0602A24F0603424F0603E65
:1004060024F0604824F0605224F0605C24F06066BA
:100416002470706FED6005E50B428022E50BF45207
:100426008022ED6005E50B429022E50BF452902206
:10043600ED6005E50B42A022E50BF452A022ED602B
:1004460005E50B42B022E50BF452B022ED6005E55E
:100456000B42C022E50BF452C022ED6005E50B42CB
:10046600C822E50BF452C822ED6005E50B42E822EE
:10047600E50BF452E822ED6005E50B42F822E50BA8
:04048600F452F82212
:10068A00EF540FD394077480948040037F012212A1
:10069A0009A2E50AFD7C007002AE80ED64104C7080
:1006AA0002AE90ED64204C7002AEA0ED64304C7046
:1006BA0002AEB0ED64404C7002AEC0ED64504C70B6
:1006CA0002AEC8ED64604C7002AEE8ED64704C7026
:0D06DA0002AEF8E50B5E60037F01227F0099
:0106E70022F0
:10062900EF540FD394077480948050541209A2AFE9
:100639000A7E00EF7004E50B6280EF64104E7004CF
:10064900E50B6290EF64204E7004E50B62A0EF6445
:10065900304E7004E50B62B0EF64404E7004E50B58
:1006690062C0EF64504E7004E50B62C8EF64604EDF
:100679007004E50B62E8EF64704E7004E50B62F8F4
:01068900224E
:1007D300EFFB7A007003ED6280EB64014A7003ED76
:1007E3006290EF64027003ED62A0EFFB7A00640392
:1007F3007003ED62B0EB64044A7003ED62C0EF6412
:10080300057003ED62C8EFFB7A0064067003ED62C6
:0B081300E8EB64074A7003ED62F82276
:1005A300EF700CEB6005ED42808004EDF45280EFB8
:1005B3006401700CEB6005ED42908004EDF4529001
:1005C300EF6402700CEB6005ED42A08004EDF45281
:1005D300A0EF6403700CEB6005ED42B08004EDF412
:1005E30052B0EF6404700CEB6005ED42C08004ED83
:1005F300F452C0EF6405700CEB6005ED42C8800453
:10060300EDF452C8EF6406700CEB6005ED42E88030
:1006130004EDF452E8EF6407700BEB6004ED42F86D
:0606230022EDF452F82262
:100787007EFFEFFB7A007002AE80EB64014A7002D5
:10079700AE90EB64024A7002AEA0EB64034A7002AB
:1007A700AEB0EB64044A7002AEC0EB64054A700257
:1007B700AEC8EB64064A7002AEE8EB64074A700203
:0B07C700AEF8EE5D60037F01227F00B2
:0107D2002204
:0809E00030313637161743448D
:10091100759850538EDEE4FD7F0112073990000770
:100921001203880001C2007F011208E1438E405387
:0D093100890FC2ABC28FD28EC200D2AC22A1
:10073900900006EDF0EF147044900006E0FF54C0FD
:10074900FEE5A2543F4EF5A2EFC41313540325E06E
:1007590024E0F582E43409F583E493FFE4FD120013
:1007690026900006E0C41313540325E024E1F58222
:0E077900E43409F583E493FF7D031200262289
:0508E100900006EFF09D
:1008E600A3E0F8A3E0F9A3E0FAA3E0FB7F807E8D06
:1008F6007D5B7C001202EAC3E49FFFE49EFE90004B
:0A09060006E01470058F8BEEF58DEE
:0109100022C4
:0E09BF00EF147009AF058F99D2002000FD22C1
:10098700EF147016EB6006D29BD29B8004C29BC209
:0B0997009BAF058F99D2002000FD22CD
:1008AA0090000BEBF0A3EAF0A3E9F0AE0790000B7F
:1008BA00E0FBA3E0FAA3E0F91202306019AF069058
:1008CA00000BA3E475F001120249A9F0FA120230F2
:0708DA00FD1209BF80D722C7
:0300230002081EB2
:10081E00C0E0C0F0C083C082C0D075D000C000C0A0
:10082E0001C002C003C004C005C006C00730980551
:10083E00C298120964309904C299C200D007D0063A
:10084E00D005D004D003D002D001D000D0D0D082B9
:07085E00D083D0F0D0E0329E
:100523000209EEE493A3F8E493A34003F68001F2F7
:1005330008DFF48029E493A3F85407240CC8C333D9
:10054300C4540F4420C8834004F456800146F6DFA8
:10055300E4800B01020408102040809009E8E47E47
:10056300019360BCA3FF543F30E509541FFEE4939D
:10057300A360010ECF54C025E060A840B8E493A364
:10058300FAE493A3F8E493A3C8C582C8CAC583CA8F
:10059300F0A3C8C582C8CAC583CADFE9DEE780BE47
:0109ED000009
:10023000BB010689828A83E0225002E722BBFE02CC
:09024000E32289828A83E49322FF
:10024900A3F8E0C5F025F0F0E58215827002158368
:06025900E0C838F0E822C5
:10025F00E88FF0A4CC8BF0A42CFCE98EF0A42CFC3E
:10026F008AF0EDA42CFCEA8EF0A4CDA8F08BF0A4BC
:10027F002DCC3825F0FDE98FF0A42CCD35F0FCEB1B
:10028F008EF0A4FEA9F0EB8FF0A4CFC5F02ECD39E0
:0F029F00FEE43CFCEAA42DCE35F0FDE43CFC224D
:1002AE0075F008758200EF2FFFEE33FECD33CDCC07
:1002BE0033CCC58233C5829BED9AEC99E58298408A
:1002CE000CF582EE9BFEED9AFDEC99FC0FD5F0D667
:1002DE00E4CEFBE4CDFAE4CCF9A88222B800C1B991
:1002EE000059BA002DEC8BF084CFCECDFCE5F0CBCF
:1002FE00F97818EF2FFFEE33FEED33FDEC33FCEB08
:10030E0033FB10D703994004EB99FB0FD8E5E4F9C2
:10031E00FA227818EF2FFFEE33FEED33FDEC33FCAF
:10032E00C933C910D7059BE99A4007EC9BFCE99AA3
:10033E00F90FD8E0E4C9FAE4CCFB2275F010EF2FE8
:10034E00FFEE33FEED33FDCC33CCC833C810D707E8
:10035E009BEC9AE899400AED9BFDEC9AFCE899F823
:0E036E000FD5F0DAE4CDFBE4CCFAE4C8F922B6
:0C037C00ECF0A3EDF0A3EEF0A3EFF022F4
:10038800A8828583F0D083D08212039F12039F1224
:10039800039F12039FE473E493A3C583C5F0C58349
:1003A800C8C582C8F0A3C583C5F0C583C8C582C8BF
:0103B8002222
:1003B900EC8EF0A4CCC5F0CCCDF8EFA4CEC5F02DD1
:1003C900FDE43CFCE8A42EC8C5F03DFDE43CFCEF8F
:0D03D900A4FFE5F028FEE43DFDE43CFC221D
:00000001FF
